:020000021000EC
:10E0000074C10000FCC10000FAC10000F8C10000AA
:10E01000F6C10000F4C10000F2C10000F0C1000030
:10E02000EEC10000ECC10000EAC10000E8C1000040
:10E03000E6C10000E4C10000E2C10000E0C1000050
:10E04000DEC10000DCC10000DAC10000D8C1000060
:10E05000D6C10000D4C10000D2C10000D0C1000070
:10E06000CEC10000CCC10000CAC10000C8C1000080
:10E07000C6C10000C4C10000C2C10000C0C1000090
:10E08000BEC10000BCC10000BAC10000537461727F
:10E0900074207573657220617070004172696164EB
:10E0A0006E6520666F722041546D6567613132384C
:10E0B00034502C2056657273696F6E20302E3500F7
:10E0C0004D61696E3A20004E6574776F726B2069FE
:10E0D0006E697420646F6E650009202020204D4118
:10E0E000433A200009476174657761793A20000955
:10E0F000205375626E65743A20000941646472654C
:10E1000073733A20004275696C742D696E207365D3
:10E110007474696E677300454550524F4D207365A6
:10E120007474696E677300204E65743A20001300A2
:10E13000050000496E76616C696420696D616765F0
:10E140002066696C650008000500004572726F72F8
:10E1500000090005000346756C6C000A000500000C
:10E160004F70636F64653F00496E697420736F631D
:10E170006B657420746F20706F72742000094461A5
:10E180007461506F72743A20005446545020736585
:10E190007276657220696E697420646F6E650052D4
:10E1A0006573706F6E73652073656E740053656E72
:10E1B000742046696E616C2041434B0053656E7458
:10E1C0002041434B00496E76616C6964206F706337
:10E1D0006F646520004572726F720041636B6E6FF1
:10E1E000776C6564676500466C617368696E67206B
:10E1F000636F6D706C657465005061636B6574204E
:10E200006C656E6774682061646A757374656420F8
:10E21000746F200057726974696E6720646174615D
:10E220002066726F6D2061646472657373200046AE
:10E230006C6173682069732066756C6C004368615B
:10E240006E67656420746F20706F72742000446183
:10E25000746120626C6F636B005772697465207221
:10E2600065717565737400526561642072657175BE
:10E270006573740020616E642064617461206C6554
:10E280006E67746820002077697468206F70636F10
:10E29000646520005468697320697320626C6F6341
:10E2A0006B20005365742075702072657475726EF2
:10E2B0002061646472657373004F766572666C6F7B
:10E2C000770050726F63657373696E672070616366
:10E2D0006B6574206F662073697A652000546674DC
:10E2E000703A20003078000D0A0011241FBECFEFD5
:10E2F000D0E4DEBFCDBF11E0A0E0B1E0E2EAF0EF94
:10E3000001E00BBF02C007900D92AC31B107D9F705
:10E3100021E0ACE1B1E001C01D92AB32B207E1F700
:10E3200001D0BDC614BE88E10FB6F894809360009A
:10E33000109260000FBE2FEF83EC99E021508040D7
:10E340009040E1F700C00000112485E08093810037
:10E3500080E090E08ED6882321F060E080E090E0BD
:10E3600090D681E090E085D6843021F064E081E0B1
:10E3700090E087D6F2D46BE970EE80EC90EE94D406
:10E3800097D0A3D052D31092290110922A01C3E052
:10E39000C12CD12C760180912901882329F080910C
:10E3A0002A01882349F004C074D38111F8CF1DC01D
:10E3B00030D5811105C017C0F6D48111F9CF15C031
:10E3C00082E090E056D68E3E81F080912A01813025
:10E3D00051F4F601E0925B00C0935700E89525D315
:10E3E0000FD510922A01EAD4D6CF6CE870EE80ECFB
:10E3F00090EE5AD4EE27FF27099480E090E000CEFB
:10E4000020E52CBD5A9820EF2EBD0DB407FEFDCFA0
:10E41000292F33272EBD0DB407FEFDCF8EBD0DB4C1
:10E4200007FEFDCF6EBD0DB407FEFDCF5A9A1CBC92
:10E4300008950F931F93CF93DF938C01EB01672F08
:10E440007727DEDF6C2FC8010196DF91CF911F91F6
:10E450000F91D6CF20E52CBD5A982FE02EBD0DB4DC
:10E4600007FEFDCF292F33272EBD0DB407FEFDCFAC
:10E470008EBD0DB407FEFDCF1EBC0DB407FEFDCF53
:10E480005A9A8EB51CBC08951F93CF93DF93EC016D
:10E49000E1DF182FCE010196DDDF212F30E0322F92
:10E4A0002227A901482BCA01DF91CF911F9108951E
:10E4B00080EF85B980EB84B95A9A529A2C9A249AA3
:10E4C0005D9A559A81E08DBD08950F931F93CF9368
:10E4D000DF9383E090E0CDD58535A9F484E090E02A
:10E4E000C8D58A3A81F401E011E0C5E0D0E0CE0160
:10E4F000C0D5F80181938F012196C731D105B9F7B5
:10E5000067E171EE02C065E071EE87E291EECCD377
:10E510006AEF70EE87E291EEC7D3CFE0D1E01FE063
:10E52000699170E080E090E042E0EFD3123111F0A9
:10E530008EE220D41F5F133199F76FEE70EE87E201
:10E5400091EEB2D3C5E0D1E015E0699170E080E0D2
:10E5500090E042E0DAD3183011F08EE20BD41F5F66
:10E56000193099F764EE70EE87E291EE9DD3C1E029
:10E57000D1E001E0699170E080E090E042E0C5D335
:10E58000043011F08EE2F6D30F5F053099F769ED94
:10E5900070EE87E291EE88D3C9E0D1E0699170E036
:10E5A00080E090E042E0B1D31E3011F08EE2E2D381
:10E5B0001F5F1F3099F700E011E0C0E0D0E0F801E4
:10E5C00061918F01CE011CDF2196CC31D105B9F7C5
:10E5D00067EC70EE87E291EEDF91CF911F910F9182
:10E5E00063C3CF93DF93EC0168E671EE8DED92EE9D
:10E5F0005BD3BE0180E090E044E087D360E181E03E
:10E6000097E0FEDEBE0184E097E013DF62E080E089
:10E6100097E0F6DE61E081E097E0F2DE83E097E0EC
:10E6200019DF823221F060E181E097E0E9DE83E0EA
:10E6300097E010DF823231F7DF91CF9108953F925A
:10E640004F925F926F927F928F929F92AF92BF9202
:10E65000CF92DF92EF92FF920F931F93CF93DF93AE
:10E66000CDB7DEB7CC50D240DEBFCDBF8C0162EC5F
:10E6700072EE8DED92EE18D3B80180E090E044E0A8
:10E6800044D30115184028F069EB72EE8DED92EE3F
:10E690000BD388E297E0F8DE009711F480E098E76A
:10E6A0008E010F5F1F4F6E01E3EFCE1AEDEFDE0A12
:10E6B0000C151D0589F07C01FFEFEF1AFF0ACADE79
:10E6C000F80181938F01E114F0E8FF0619F4E12CC1
:10E6D00078E7F72EC701ECCFBC0188E297E0A9DE0E
:10E6E00060E481E097E08CDE81E097E0B3DE8111A9
:10E6F000FBCFCE0101967C010CE017E0F7016191A0
:10E700007F01C8017DDE0F5F1F4F0231F7E01F0759
:10E71000A9F763EA72EE8DED92EEC6D2AF80B12C0E
:10E72000BA2CAA248885A80EB11C098510E0102FE8
:10E7300000278A85080F111DEB84F12CFE2CEE2496
:10E740008C85E80EF11C64E972EE8DED92EEACD290
:10E75000B70180E090E044E0D8D286E892EE80D223
:10E76000B80180E090E044E0D0D284E792EE78D225
:10E77000650124E0C21AD1082601612C712C44E005
:10E78000C301B201C2D20330110591F489EFE8163A
:10E79000F10460F480911C0190911D01E816F906C6
:10E7A00028F001968E159F0508F048C000E010E0A3
:10E7B00095E0A91692E0B90608F00EC103301105E4
:10E7C00009F442C068F501301105A9F102301105C4
:10E7D00009F004C115D369E572EE8DED92EE64D2B5
:10E7E0006FEF82E090E04DD4809127019091280155
:10E7F000F8DE6DE372EE8DED92EE56D26091270158
:10E800007091280180E090E044E07FD210921D01D9
:10E8100010921C0110921F0110921E0112E0EEC016
:10E820000430110509F4D1C00530110509F0D6C036
:10E8300065ED71EECCC067E672EEC9C0E5E0AE16DC
:10E84000E2E0BE0608F0C8C0DBD26EE472EE8DEDE9
:10E8500092EE2AD2F0921F01E0921E01E1E0EE1A40
:10E86000F1084701A12CB12C99E0880C991CAA1C35
:10E87000BB1C9A95D1F7AA24BB24EE0CEF2CEE1CFE
:10E88000FF08F194C701A0E0B0E0DC0199278827D8
:10E89000882A992AAA2ABB2A480C591C6A1C7B1C64
:10E8A000F1E04F16F0EF5F06F1E06F06710438F00B
:10E8B0006FE272EE8DED92EEF7D113E09FC064E14E
:10E8C00072EE8DED92EEF0D146E0C501B4011DD29D
:10E8D000C11422E0D20610F414E001C012E0CC20F2
:10E8E00021F08FEFC81AD80AFACF69EF71EE8DEDDB
:10E8F00092EEDAD1C601A0E0B0E044E0BC01CD0167
:10E9000004D281149104A104B10419F4CE010D962E
:10E9100093D1DE011D9620E030E0332433942401AE
:10E92000350191E0591A6108710803E0F5E0FF2E06
:10E9300081E1E82E2C153D0508F03BC0C501B4016E
:10E94000620F731F811D911DE1E0F0E0EC0FFD1FD0
:10E95000E20FF31F458550E0542F4427EC914E2BD6
:10E960000A01FB0180935B0030925700E895112467
:10E970002E5F3F4F21111BC0B301A201420F531F55
:10E98000611D711DFA0160935B0000935700E895CB
:10E9900007B600FCFDCFFA0160935B00F0925700D0
:10E9A000E89507B600FCFDCFE0925700E895129677
:10E9B000C1CF143019F567EE71EE8DED92EE74D182
:10E9C0006EEE82E090E05DD319C06BED71EE8DEDDF
:10E9D00092EE6AD110E012C000E010E065EC71EE3A
:10E9E0008DED92EE61D1B80180E090E044E08DD1F0
:10E9F0008091270190912801F4DD11E0812FC45FFF
:10EA0000DD4FDEBFCDBFDF91CF911F910F91FF9002
:10EA1000EF90DF90CF90BF90AF909F908F907F90BE
:10EA20006F905F904F903F900895CF9385E490E072
:10EA3000D8DD87E190E01DD38B3B91F489E190E034
:10EA400018D3C82F88E190E014D32C2F30E0322F58
:10EA50002227280F311D309328012093270106C05B
:10EA600089E797EB909328018093270169E871EE7D
:10EA70008DED92EE19D16DE771EE8DED92EE14D120
:10EA8000609127017091280180E090E044E0CF91EF
:10EA90003CC1AF92BF92CF92DF92EF92FF920F9361
:10EAA0001F93CF93DF93CDB7DEB7C456D109DEBF36
:10EAB000CDBF86E297E0E8DC892B11F481E0ADC0A0
:10EAC00081E080932A0182E097E0C4DC82FF0EC0DF
:10EAD00064E082E097E094DC2FEF37E883E1215097
:10EAE00030408040E1F700C00000EDCF86E297E0C3
:10EAF000CBDCA5DDF82E84E297E0C6DC8C01185A49
:10EB000092E0F916C9F19F1520F0E1E0FE16D1F070
:10EB100007C0F3E0FF1619F124E0F21609F47AC0F9
:10EB200046E451EE60E070E06F5F7F4F2AE030E036
:10EB3000CE01019694D28AE0FE0131966F01E82E53
:10EB4000EE0E4AC04BE551EE60E070E06F5F7F4F24
:10EB50002CE030E0CE01019682D28CE0EDCF41E591
:10EB600051EE60E070E06F5F7F4F29E030E0CE0152
:10EB7000019675D289E0E0CF80911E0190911F012E
:10EB800020911C0130911D012817390720F4909322
:10EB90001D0180931C016CEB71EE8DED92EE84D023
:10EBA000198284E08A8380911E0190911F019B83CA
:10EBB0008C8384E0C1CFF60161916F015801FFEFB2
:10EBC000AF1ABF0AC8011CDCA11420E6B20619F472
:10EBD000A12CF8E5BF2E8501EC10EDCFB8017855DA
:10EBE00084E297E026DC60E281E097E009DC81E0E6
:10EBF00097E030DC8111FBCF6FE971EE8DED92EE85
:10EC000053D034E0F3125ACF60E181E097E0F8DBB3
:10EC100080E003C06DEA71EEC0CFCC59DF4FDEBF9C
:10EC2000CDBFDF91CF911F910F91FF90EF90DF90BB
:10EC3000CF90BF90AF90089520E030E0FC01E20F4C
:10EC4000F31F40814C3051F44181443939F42C5F39
:10EC50003F4F2433310591F781E0089580E0089516
:10EC6000CF92DF92EF92FF92CF93DF93D0E06C01CF
:10EC7000E12CF12C8FEFE81AF80AD701C6018D0FAD
:10EC8000911DA11DB11DABBFFC01C791CC2311F09B
:10EC90008C2F70D0DF5FC111F0CFDF91CF91FF904B
:10ECA000EF90DF90CF9008950F931F93CF93DF9352
:10ECB000EC018B0187EE92EED3DFCE01D1DFC801EC
:10ECC000DF91CF911F910F91CBCFCF93DF93FC01B9
:10ECD0002081222331F0EC018991882311F04AD060
:10ECE000FBCFDF91CF9108950F931F93CF93DF93C5
:10ECF000EC018B0187EE92EEB3DFCE01B1DFC801EC
:10ED0000DF91CF911F910F91E0CFCF92DF92EF92E1
:10ED1000FF92CF936B017C01C42F84EE92EEA0DFB3
:10ED2000CC23A9F08C2F90E00197880F991F880FB2
:10ED3000991FA701960104C05695479537952795C9
:10ED40008A95D2F7DA01C9011CD0C150E9CFCF9121
:10ED5000FF90EF90DF90CF90089582E08093C00005
:10ED600088E18093C10086E08093C20080E18093B7
:10ED7000C40008959091C00095FFFCCF8093C60019
:10ED800008958F708A3008F0895F805DF3CF80919D
:10ED9000C00087FFFCCF8091C00084FD01C0A89512
:10EDA0008091C60008958091C00087FF05C028D0DB
:10EDB00081E08093290153C081E00895809184000F
:10EDC0009091850092FF05C02BB130E223272BB92B
:10EDD00001C05D9820912201309123018217930791
:10EDE00050F420912001309121012F5F3F4F30934B
:10EDF0002101209320019093230180932201089503
:10EE0000109285001092840010922101109220012E
:10EE1000089580E090E0DC01ABBFFC018791969102
:10EE2000019641F081E020912001309121012530AF
:10EE3000310508F480E00895AADF803239F088E1D6
:10EE40008093600088E080936000FFCF84E192CFE0
:10EE5000CF93C82F9CDFC150E9F7CF91EDCFCF9270
:10EE6000DF92EF92FF920F931F93CF93DF93CDB773
:10EE7000DEB7C150D140DEBFCDBF89DF8134A9F4F8
:10EE800086DFCF5FDE4F8883C150D140D5DFCF5FB3
:10EE9000DE4F8881C150D140823811F484E003C034
:10EEA000813821F183E066DFCAC0823411F484E145
:10EEB00003C0853419F484E0CBDFC1C0853591F4FB
:10EEC00066DF182F64DF212F30E0382B832F881F57
:10EED0008827881F8BBF220F331F30932601209372
:10EEE0002501ACC0863521F484E0B2DF80E0DBCFC1
:10EEF000843609F070C04BDF4ADF8093240147DF7E
:10EF00008091250190912601811520EE920748F409
:10EF1000A0E0B0E023E0FC01A0935B002093570049
:10EF2000E895CE0101967C018C0131DFF7018193D8
:10EF30007F01809124018150809324018111F5CFBC
:10EF400080912501909126018115F0EE9F0748F0F0
:10EF5000A0E0B0E023E0FC01A0935B002093570009
:10EF6000E8956ADF07B600FCFDCF809125019091FE
:10EF70002601A98120E030E0DD24D3947801E20E5F
:10EF8000F31EA901480F591F60E070E0F701C1802E
:10EF9000B0E0BC290D01FA0160935B00D0925700EC
:10EFA000E89511242E3F310529F02E5F3F4FF701E0
:10EFB000A281E4CFA0E0B0E025E0FC01A0935B00DB
:10EFC00020935700E89507B600FCFDCF81E18093C0
:10EFD0005700E89534C08437E9F4D9DED8DE809351
:10EFE0002401D5DE29DFE0912501F09126018691EB
:10EFF000C1DE809125019091260101969093260112
:10F0000080932501809124018150809324018111F6
:10F01000EACF15C0853739F40FDF8EE1ABDE87E923
:10F02000A9DE85E040CF813549F406DF6EEE82E04F
:10F0300090E027D080E19EDE80E004C0FDDE80E12C
:10F0400099DE81E0CF5FDE4FDEBFCDBFDF91CF9194
:10F050001F910F91FF90EF90DF90CF9008956BBFBD
:10F06000FA01DC0102C007900D9221503040D8F720
:10F070000895F999FECF92BD81BDF89A992780B580
:10F080000895262FF999FECF1FBA92BD81BD20BDEC
:10F090000FB6F894FA9AF99A0FBE01960895F8946B
:02F0A000FFCFA0
:10F0A20080C0A801FEFFFFFF00DEADBEEFFEEDC097
:0CF0B200A801800000000007D080555528
:040000031000E00009
:00000001FF
