:1070000062C10000E5C10000E3C10000E1C1000071
:10701000DFC10000DDC10000DBC10000D9C10000FC
:10702000D7C10000D5C10000D3C10000D1C100000C
:10703000CFC10000CDC10000CBC10000C9C100001C
:10704000C7C10000C5C10000C3C10000C1C100002C
:10705000BFC10000BDC10000BBC10000B9C100003C
:10706000B7C10000B5C1000053746172742075731C
:107070006572206170700041726961646E6520669E
:107080006F722041726475696E6F20556E6F2C208F
:1070900056657273696F6E20302E35004D61696ED2
:1070A0003A20004E6574776F726B20696E697420A8
:1070B000646F6E650009202020204D41433A200076
:1070C00009476174657761793A2000092053756238
:1070D0006E65743A200009416464726573733A20E6
:1070E000004275696C742D696E2073657474696EE5
:1070F000677300454550524F4D2073657474696E37
:10710000677300204E65743A2000130005000049A3
:107110006E76616C696420696D6167652066696C73
:10712000650008000500004572726F7200090005D5
:10713000000346756C6C000A000500004F70636F19
:1071400064653F00496E697420736F636B657420DA
:10715000746F20706F727420000944617461506F05
:1071600072743A20005446545020736572766572EA
:1071700020696E697420646F6E6500526573706F6C
:107180006E73652073656E740053656E7420466976
:107190006E616C2041434B0053656E742041434B3C
:1071A00000496E76616C6964206F70636F6465205E
:1071B000004572726F720041636B6E6F776C65642D
:1071C000676500466C617368696E6720636F6D70F8
:1071D0006C657465005061636B6574206C656E67E7
:1071E00074682061646A757374656420746F20002C
:1071F00057726974696E6720646174612066726F8A
:107200006D20616464726573732000466C617368FD
:107210002069732066756C6C004368616E676564F5
:1072200020746F20706F727420004461746120625A
:107230006C6F636B00577269746520726571756558
:1072400073740052656164207265717565737400B2
:1072500020616E642064617461206C656E6774687F
:1072600020002077697468206F70636F6465200068
:107270005468697320697320626C6F636B200053DC
:1072800065742075702072657475726E2061646417
:1072900072657373004F766572666C6F770050721B
:1072A0006F63657373696E67207061636B657420CB
:1072B0006F662073697A652000546674703A200006
:1072C0003078000D0A0011241FBECFEFD8E0DEBFDA
:1072D000CDBF11E0A0E0B1E0E4ECFFE702C0059013
:1072E0000D92AC31B107D9F721E0ACE1B1E001C0BA
:1072F0001D92AB32B207E1F701D062C614BE88E13D
:107300000FB6F89480936000109260000FBE2FEFCC
:1073100083EC99E0215080409040E1F700C00000EC
:10732000112485E08093810080E090E033D68823AB
:1073300021F060E080E090E035D681E090E02AD650
:10734000843021F064E081E090E02CD6B7D467E788
:1073500070E78CE990E759D494D09CD032D3109246
:10736000290110922A0113E0C0E0D0E080912901A8
:10737000882329F080912A01882349F004C055D33D
:107380008111F8CF1BC0F6D4811105C015C0BCD443
:107390008111F9CF13C082E090E0FCD58E3E71F0F0
:1073A00080912A01813041F4FE0110935700E89545
:1073B00008D3D7D410922A01B2D4D8CF68E670E7A8
:1073C0008CE990E722D4EE27FF27099480E090E033
:1073D00017CE20E52CBD2A9820EF2EBD0DB407FE58
:1073E000FDCF292F33272EBD0DB407FEFDCF8EBD57
:1073F0000DB407FEFDCF6EBD0DB407FEFDCF2A9A7A
:107400001CBC08950F931F93CF93DF938C01EB0166
:10741000672F7727DEDF6C2FC8010196DF91CF91B0
:107420001F910F91D6CF20E52CBD2A982FE02EBDBD
:107430000DB407FEFDCF292F33272EBD0DB407FE57
:10744000FDCF8EBD0DB407FEFDCF1EBC0DB407FEF3
:10745000FDCF2A9A8EB51CBC08951F93CF93DF935E
:10746000EC01E1DF182FCE010196DDDF212F30E0A6
:10747000322F2227A901482BCA01DF91CF911F91FA
:1074800008958CE385B98CE284B95C9A549A81E0C2
:107490008DBD08950F931F93CF93DF9383E090E00A
:1074A00079D58535A9F484E090E074D58A3A81F4E1
:1074B00001E011E0C5E0D0E0CE016CD5F801819388
:1074C0008F012196C731D105B9F763EF70E702C08C
:1074D00061EE70E783E091E798D366ED70E783E0B3
:1074E00091E793D3CFE0D1E01FE0699170E080E0B5
:1074F00090E042E0BBD3123111F08EE2ECD31F5F7B
:10750000133199F76BEC70E783E091E77ED3C5E028
:10751000D1E015E0699170E080E090E042E0A6D310
:10752000183011F08EE2D7D31F5F193099F760EC55
:1075300070E783E091E769D3C1E0D1E001E06991B0
:1075400070E080E090E042E091D3043011F08EE2F0
:10755000C2D30F5F053099F765EB70E783E091E7E1
:1075600054D3C9E0D1E0699170E080E090E042E05E
:107570007DD31E3011F08EE2AED31F5F1F3099F71E
:1075800000E011E0C0E0D0E0F80161918F01CE0190
:1075900020DF2196CC31D105B9F763EA70E783E0AB
:1075A00091E7DF91CF911F910F912FC3CF93DF937D
:1075B000EC0164E471E789EB92E727D3BE0180E038
:1075C00090E044E053D360E181E097E002DFBE0148
:1075D00084E097E017DF62E080E097E0FADE61E0A8
:1075E00081E097E0F6DE83E097E01DDF823221F054
:1075F00060E181E097E0EDDE83E097E014DF823226
:1076000031F7DF91CF9108958F929F92AF92BF9201
:10761000CF92DF92EF92FF920F931F93CF93DF935E
:10762000CDB7DEB7CD50D240DEBFCDBF8C016EE905
:1076300072E789EB92E7E9D2B80180E090E044E09C
:1076400015D30115184028F065E972E789EB92E738
:10765000DCD288E297E001DF009711F480E098E740
:107660008E010F5F1F4F5E01E3EFAE1AEDEFBE0A12
:1076700068010A151B0589F07C01FFEFEF1AFF0A6C
:10768000D2DEF80181938F01E114F0E8FF0619F4CE
:10769000E12C88E7F82EC701ECCFBC0188E297E027
:1076A000B1DE60E481E097E094DE81E097E0BBDE4C
:1076B0008111FBCF76010CE017E0F70161917F01AA
:1076C000C80187DE0F5F1F4F0231F7E01F07A9F7E0
:1076D0006FE772E789EB92E798D28F80912C982C14
:1076E00088248885880E911CA984B12CBA2CAA24E0
:1076F0008A85A80EB11CEB84F12CFE2CEE248C851F
:10770000E80EF11C60E772E789EB92E77ED2B701E1
:1077100080E090E044E0AAD282E692E760D2B50130
:1077200080E090E044E0A2D280E592E758D2840164
:1077300004501109B80180E090E044E097D223E0C2
:10774000A216B10491F489E3E816F10460F4809183
:107750001C0190911D01E816F90628F001968E157E
:107760009F0508F04DC0A12CB12CE5E08E16E2E09B
:107770009E0608F002C1F3E0AF16B10409F446C05A
:1077800078F581E0A816B104C1F1E2E0AE16B104CB
:1077900009F0F5C0E6D265E372E789EB92E735D2EE
:1077A0006FEF82E090E0FED3809127019091280155
:1077B000FDDE69E172E789EB92E727D2609127014C
:1077C0007091280180E090E044E050D210921D01B9
:1077D00010921C0110921F0110921E0152E0DFC096
:1077E000F4E0AF16B10409F4C1C025E0A216B1045B
:1077F00009F0C5C061EB71E7BBC063E472E7B8C0D4
:1078000025E0821622E0920608F0B7C0AAD26AE20A
:1078100072E789EB92E7F9D1F0921F01E0921E0125
:1078200081E0E81AF108FE2CEE24FF0CC701800F5E
:10783000911F8130904738F06BE072E789EB92E757
:10784000E4D153E0ACC060EF71E789EB92E7DDD1A2
:10785000C701A0E0B0E046E0BC01CD0107D20115B0
:10786000F2E01F0710F454E001C052E0C8018F7726
:107870009927892B19F00F5F1F4FF8CF65ED71E73E
:1078800089EB92E7C35FDD4F5883CD50D240BDD125
:10789000C801A0E0B0E044E0BC01CD01E7D1C35F86
:1078A000DD4F5881CD50D240E114F10451F0DE019A
:1078B0001D9620E030E041E063E075E0F1E1BF2E8D
:1078C0003CC0CE010D96C35FDD4F5883CD50D240F2
:1078D00072D1C35FDD4F5881CD50D2408111E7CFC7
:1078E00055E05DC0F601E20FF31F858590E0982F0B
:1078F0008827EC918E2BF7010C0140935700E895F7
:1079000011242E5F3F4FC9018F779927892B89F466
:10791000EE57F10960935700E89507B600FCFDCFDC
:1079200070935700E89507B600FCFDCFB092570062
:10793000E8951296F2E0EF0EF11C2017310790F255
:10794000543069F563EC71E789EB92E7C35FDD4F73
:107950005883CD50D24059D16EEE82E090E022D3D0
:10796000C35FDD4F5881CD50D24019C067EB71E73E
:1079700089EB92E74AD150E012C0A12CB12C61EA08
:1079800071E789EB92E741D1B50180E090E044E0F6
:107990006DD1809127019091280108DE51E0852F5B
:1079A000C35FDD4FDEBFCDBFDF91CF911F910F9140
:1079B000FF90EF90DF90CF90BF90AF909F908F900F
:1079C0000895CF9385E490E0F1DD87E190E0E2D285
:1079D0008B3B91F489E190E0DDD2C82F88E190E003
:1079E000D9D22C2F30E0322F2227280F311D30938F
:1079F00028012093270106C089E797EB909328017F
:107A00008093270165E671E789EB92E7FED069E58F
:107A100071E789EB92E7F9D0609127017091280115
:107A200080E090E044E0CF9121C1AF92BF92CF922D
:107A3000DF92EF92FF920F931F93CF93DF93CDB717
:107A4000DEB7C456D109DEBFCDBF86E297E005DDC3
:107A5000892B11F481E0A0C081E080932A0182E0AB
:107A600097E0E1DC82FF0EC064E082E097E0B1DCE9
:107A70002FEF37E883E1215030408040E1F700C02C
:107A80000000EDCF86E297E0E8DCBEDDB82E84E2B0
:107A900097E0E3DC8C01185A92E0B91669F19B1566
:107AA00020F0E1E0BE16B1F007C0F3E0BF16D9F058
:107AB00024E0B21609F46DC04AE050E062E271E7DA
:107AC000CE0101965ED28AE0FE0131967F01A82E9A
:107AD000AE0E41C04CE050E067E371E7CE01019685
:107AE00050D28CE0F1CF49E050E06DE271E7CE0179
:107AF000019647D289E0E8CF20911E0130911F0105
:107B000040911C0150911D014217530720F43093FE
:107B10001D0120931C0168E971E789EB92E775D09C
:107B2000198284E08A8320911E0130911F013B83DA
:107B30002C83CACFF70161917F016801FFEFCF1A53
:107B4000DF0AC80146DCC11420E6D20619F4C12CB4
:107B500028E5D22E8601AE10EDCFB801785584E22B
:107B600097E050DC60E281E097E033DC81E097E071
:107B70005ADC8111FBCF6BE771E789EB92E745D0C7
:107B800034E0B31267CF60E181E097E022DC80E06F
:107B900003C069E871E7C1CFCC59DF4FDEBFCDBF6D
:107BA000DF91CF911F910F91FF90EF90DF90CF90D9
:107BB000BF90AF90089520E030E0FC01E20FF31F8A
:107BC00040814C3051F44181443939F42C5F3F4FAE
:107BD0002433310591F781E0089580E008950F93F3
:107BE0001F93CF93DF93EC0100E0FE01E00FF11D46
:107BF0001491112311F0812F6ED00F5F1111F5CF69
:107C0000DF91CF911F910F9108950F931F93CF9301
:107C1000DF93EC018B0183EC92E7E1DFCE01DFDF44
:107C2000C801DF91CF911F910F91D9CFCF93DF93EF
:107C3000FC012081222331F0EC018991882311F08D
:107C40004AD0FBCFDF91CF9108950F931F93CF932D
:107C5000DF93EC018B0183EC92E7C1DFCE01BFDF44
:107C6000C801DF91CF911F910F91E0CFCF92DF92AA
:107C7000EF92FF92CF936B017C01C42F80EC92E7CF
:107C8000AEDFCC23A9F08C2F90E00197880F991FCD
:107C9000880F991FA701960104C0569547953795FF
:107CA00027958A95D2F7DA01C9011CD0C150E9CFD6
:107CB000CF91FF90EF90DF90CF90089582E0809376
:107CC000C00088E18093C10086E08093C20080E11B
:107CD0008093C40008959091C00095FFFCCF8093DD
:107CE000C60008958F708A3008F0895F805DF3CFF9
:107CF0008091C00087FFFCCF8091C00084FD01C04F
:107D0000A8958091C60008958091C00087FF05C0A6
:107D100028D081E08093290150C081E008958091AE
:107D200084009091850092FF05C025B130E22327A1
:107D300025B901C02D98209122013091230182178D
:107D4000930750F420912001309121012F5F3F4F84
:107D500030932101209320019093230180932201ED
:107D600008951092850010928400109221011092C3
:107D700020010895E0E0F0E085919491019641F0B2
:107D800081E020912001309121012530310508F456
:107D900080E00895ADDF803239F088E180936000A3
:107DA00088E080936000FFCF84E195CFCF93C82F08
:107DB0009FDFC150E9F7CF91EDCFEF92FF920F9384
:107DC0001F93CF93DF93CDB7DEB7C150D140DEBF55
:107DD000CDBF8EDF8134A9F48BDFCF5FDE4F888388
:107DE000C150D140D7DFCF5FDE4F8881C150D14035
:107DF000823811F484E003C08138F9F083E06BDF4E
:107E0000B2C0823411F484E103C0853419F484E0F3
:107E1000CDDFA9C0853569F46BDF182F69DF212F0D
:107E200030E0382B220F331F309326012093250199
:107E300099C0863521F484E0B9DF80E0E0CF843654
:107E400009F060C055DF54DF8093240151DFE091D9
:107E50002501F0912601E11580E7F80720F483E081
:107E600080935700E8958E010F5F1F4F780140DF28
:107E7000F80181938F018091240181508093240126
:107E80008111F5CFE0912501F0912601E11580E700
:107E9000F80720F083E080935700E8957BDF07B672
:107EA00000FCFDCF20912501309126018901025867
:107EB0001F4FC9016981A701421B530BFF24F39493
:107EC000DA01A80FB91F1196EC91119770E07E2B83
:107ED000FC010B01F0925700E895112480179107DF
:107EE00021F0029612966C91EBCF85E0F901809318
:107EF0005700E89507B600FCFDCF81E1809357005D
:107F0000E89531C08437D1F4F3DEF2DE80932401AA
:107F1000EFDE40DFE0912501F0912601CF010196CF
:107F200090932601809325018491D5DE80912401D0
:107F30008150809324018111EDCF15C0853739F42C
:107F400029DF8EE1C8DE85E9C6DE8FE058CF8135B6
:107F500049F420DF6EEE82E090E024D080E1BBDEC9
:107F600080E004C017DF80E1B6DE81E0CF5FDE4F46
:107F7000DEBFCDBFDF91CF911F910F91FF90EF90AA
:107F80000895FB01DC0102C005900D924150504064
:107F9000D8F70895F999FECF92BD81BDF89A992737
:107FA00080B50895262FF999FECF1FBA92BD81BDE5
:107FB00020BD0FB6F894FA9AF99A0FBE019608956B
:047FC000F894FFCF63
:107FC40080C0A801FEFFFFFF00DEADBEEFFEEDC0E6
:0C7FD400A801800000000007D080555577
:040000030000700089
:00000001FF
