:020000021000EC
:10F0000062C00000DFC00000DDC00000DBC0000007
:10F01000D9C00000D7C00000D5C00000D3C0000098
:10F02000D1C00000CFC00000CDC00000CBC00000A8
:10F03000C9C00000C7C00000C5C00000C3C00000B8
:10F04000C1C00000BFC00000BDC00000BBC00000C8
:10F05000B9C00000B7C00000B5C00000B3C00000D8
:10F06000B1C00000AFC00000ADC00000ABC00000E8
:10F07000A9C00000A7C00000A5C00000A3C00000F8
:10F08000A1C000009FC000009DC00000130005004B
:10F0900000496E76616C696420696D616765206600
:10F0A000696C650008000500004572726F72000906
:10F0B0000005000346756C6C000A000500004F70E7
:10F0C000636F64653F0011241FBECFEFD0E4DEBF45
:10F0D000CDBF11E0A0E0B1E0E6E5FBEF01E00BBF42
:10F0E00002C007900D92AC31B107D9F721E0ACE135
:10F0F000B1E001C01D92AB32B207E1F701D029C5E2
:10F1000014BE88E10FB6F8948093600010926000FE
:10F110000FBE2FEF81EE94E0215080409040E1F748
:10F1200000C00000112485E08093810080E090E021
:10F13000FAD4882321F060E080E090E0FCD481E004
:10F1400090E0F1D4843021F064E081E090E0F3D4E9
:10F150005ED391D099D063D21092290110922A01E6
:10F16000C3E0C12CD12C760180912901882329F09C
:10F1700080912A01882349F004C074D28111F8CF0C
:10F180001CC0A1D3811105C0EFCF67D38111F9CF86
:10F1900014C082E090E0C7D48E3E79F080912A01BD
:10F1A000813011F7F601E0925B00C0935700E895BB
:10F1B00036D280D310922A01D7CFEE27FF270994A9
:10F1C00080E090E01DCF20E52CBD5A9820EF2EBDA9
:10F1D0000DB407FEFDCF292F33272EBD0DB407FE3A
:10F1E000FDCF8EBD0DB407FEFDCF6EBD0DB407FE85
:10F1F000FDCF5A9A1CBC08950F931F93CF93DF93B2
:10F200008C01EB01672F7727DEDF6C2FC801019699
:10F21000DF91CF911F910F91D6CF20E52CBD5A9849
:10F220002FE02EBD0DB407FEFDCF292F33272EBDB5
:10F230000DB407FEFDCF8EBD0DB407FEFDCF1EBC85
:10F240000DB407FEFDCF5A9A8EB51CBC08951F93CE
:10F25000CF93DF93EC01E1DF182FCE010196DDDFC4
:10F26000212F30E0322F2227A901482BCA01DF913C
:10F27000CF911F91089580EF85B980EB84B95A9A98
:10F28000529A81E08DBD08950F931F93CF93DF9322
:10F2900083E090E048D4853529F000E011E0C0E03B
:10F2A000D0E013C084E090E03ED48A3AB1F701E0A8
:10F2B00011E0C5E0D0E0CE0136D4F80181938F0192
:10F2C0002196C731D105B9F7E8CFF80161918F01D7
:10F2D000CE0179DF2196CC31D105B9F7DF91CF91FD
:10F2E0001F910F910895CF93DF93EC0160E181E0CE
:10F2F00097E069DFBE0184E097E07EDF62E080E0B6
:10F3000097E061DF61E081E097E05DDF83E097E017
:10F3100084DF823221F060E181E097E054DF83E016
:10F3200097E07BDF823231F7DF91CF9108952F9202
:10F330003F924F925F926F927F928F929F92AF9285
:10F34000BF92CF92DF92EF92FF920F931F93CF93D2
:10F35000DF93CDB7DEB7CD50D240DEBFCDBF88E260
:10F3600097E075DF009711F480E098E78E010F5F5A
:10F370001F4F6E0123EFC21A2DEFD20A58010C1550
:10F380001D0589F07C01EFEFEE1AFE0A46DFF80159
:10F3900081938F01E114F0E8FF0619F4E12CE8E70E
:10F3A000FE2EC701ECCFBC0188E297E025DF60E4C8
:10F3B00081E097E008DF81E097E02FDF8111FBCF4C
:10F3C00075010CE017E0F70161917F01C801FBDED8
:10F3D0000F5F1F4F0231F7E01F07A9F70F8110E001
:10F3E000102F00278885080F111D298530E0322F46
:10F3F00022278A85280F311D8B8590E0F82EEE2478
:10F400004C85E40EF11C2330310589F429EFE21616
:10F41000F104A8F520911C0130911D01E216F306BC
:10F4200070F12F5F3F4F2E153F0548F124C0053086
:10F43000124028F524303105D0F42130310531F166
:10F4400022303105E1F436D26FEF82E090E073D3E1
:10F45000809127019091280146DF10921D011092A2
:10F460001C0110921F0110921E0122E044C02630A0
:10F47000310560F004C0053082E0180768F0809123
:10F480002701909128012FDF21E035C0C35FDD4FB8
:10F490001882CD50D240A7C00DD204501109F0926D
:10F4A0001F01E0921E01C70101976C01E12CF12CB4
:10F4B00029E0CC0CDD1CEE1CFF1C2A95D1F7EE24B4
:10F4C000FF24880F892F881F990B9195A0E0B0E049
:10F4D000DC0199278827C82AD92AEA2AFB2AD701DA
:10F4E000C601800F911FA11DB11D8130904FA14019
:10F4F000B10538F023E0C35FDD4F2883CD50D24003
:10F5000072C00115F2E01F0710F424E001C022E0F0
:10F51000C35FDD4F2883CD50D240002319F00F5F29
:10F520001F4FFBCFC114D104E104F10419F4CE0143
:10F530000D9659D1DE011D9620E030E09924939478
:10F540002601370181E0581A61087108F3E08F2E17
:10F5500085E0382E91E1292E2017310708F038C0B8
:10F56000C701B601620F731F811D911DF501E20FE6
:10F57000F31F458550E0542F4427EC914E2B0A0190
:10F58000FB0180935B0090925700E89511242E5F59
:10F590003F4F21111BC0B301A201420F531F611D38
:10F5A000711DFA0160935B0080925700E89507B6E1
:10F5B00000FCFDCFFA0160935B0030925700E895A4
:10F5C00007B600FCFDCF20925700E8951296C4CFF5
:10F5D000C35FDD4F2881CD50D240243021F46EEE40
:10F5E00082E090E0A8D2C35FDD4F8881CD50D24049
:10F5F000C35FDD4FDEBFCDBFDF91CF911F910F9174
:10F60000FF90EF90DF90CF90BF90AF909F908F9042
:10F610007F906F905F904F903F902F900895CF9381
:10F6200085E490E060DE87E190E07DD28B3B91F451
:10F6300089E190E078D2C82F88E190E074D22C2F35
:10F6400030E0322F2227280F311D309328012093DC
:10F65000270106C089E797EB909328018093270143
:10F66000CF910895AF92BF92CF92DF92EF92FF9227
:10F670000F931F93CF93DF93CDB7DEB7C456D10955
:10F68000DEBFCDBF86E297E0E2DD892B11F481E099
:10F690009BC081E080932A0182E097E0BEDD82FF7B
:10F6A0000EC064E082E097E08EDD2FEF33EC89E05E
:10F6B000215030408040E1F700C00000EDCF37DE40
:10F6C000F82E84E297E0C3DD8C01185A92E0F91617
:10F6D000C1F19F1520F0E1E0FE16C9F006C0F3E08D
:10F6E000FF1611F124E0F216D9F144EA50EF60E080
:10F6F00070E06F5F7F4F2AE030E0CE01019609D2C3
:10F700008AE0FE0131966F01E82EEE0E45C049EB0E
:10F7100050EF60E070E06F5F7F4F2CE030E0CE0193
:10F720000196F7D18CE0EDCF4FEA50EF60E070E04A
:10F730006F5F7F4F29E030E0CE010196EAD189E08A
:10F74000E0CF80911E0190911F0120911C0130910A
:10F750001D012817390720F490931D0180931C0187
:10F76000198284E08A8380911E0190911F019B83FE
:10F770008C8384E0C6CFF60161916F015801FFEFE1
:10F78000AF1ABF0AC8011FDDA11420E6B20619F4A2
:10F79000A12CA8E5BA2E8501EC10EDCFB801785563
:10F7A00084E297E029DD60E281E097E00CDD81E012
:10F7B00097E033DD8111FBCF34E0F31268CF60E1D5
:10F7C00081E097E000DD80E0CC59DF4FDEBFCDBFA8
:10F7D000DF91CF911F910F91FF90EF90DF90CF902D
:10F7E000BF90AF90089520E030E0FC01E20FF31FDE
:10F7F00040814C3051F44181443939F42C5F3F4F02
:10F800002433310591F781E0089580E0089582E086
:10F810008093C00088E18093C10086E08093C2009D
:10F8200088E08093C40008959091C00095FFFCCFBC
:10F830008093C60008958F708A3008F0895F805DDC
:10F84000F3CF8091C00087FFFCCF8091C00084FD82
:10F8500001C0A8958091C60008958091C00087FFDF
:10F8600005C028D081E08093290153C081E008952C
:10F87000809184009091850092FF05C02BB130E209
:10F8800023272BB901C05D982091220130912301DB
:10F890008217930750F420912001309121012F5FAE
:10F8A0003F4F3093210120932001909323018093B7
:10F8B0002201089510928500109284001092210177
:10F8C00010922001089580E090E0DC01ABBFFC01C4
:10F8D00087919691019641F081E02091200130912D
:10F8E00021012530310508F480E00895AADF803237
:10F8F00039F088E18093600088E080936000FFCF5A
:10F9000084E192CFCF93C82F9CDFC150E9F7CF910C
:10F91000EDCFCF92DF92EF92FF920F931F93CF9391
:10F92000DF93CDB7DEB7C150D140DEBFCDBF89DF99
:10F930008134A9F486DFCF5FDE4F8883C150D14088
:10F94000D5DFCF5FDE4F8881C150D140823811F4BE
:10F9500084E003C0813821F183E066DFCAC08234CD
:10F9600011F484E103C0853419F484E0CBDFC1C015
:10F97000853591F466DF182F64DF212F30E0382BB6
:10F98000832F881F8827881F8BBF220F331F309338
:10F99000260120932501ACC0863521F484E0B2DF36
:10F9A00080E0DBCF843609F070C04BDF4ADF809304
:10F9B000240147DF8091250190912601811520EED9
:10F9C000920748F4A0E0B0E023E0FC01A0935B00C4
:10F9D00020935700E895CE0101967C018C0131DF20
:10F9E000F70181937F01809124018150809324014C
:10F9F0008111F5CF80912501909126018115F0EEBE
:10FA00009F0748F0A0E0B0E023E0FC01A0935B007A
:10FA100020935700E8956ADF07B600FCFDCF809180
:10FA2000250190912601A98120E030E0DD24D394C6
:10FA30007801E20EF31EA901480F591F60E070E043
:10FA4000F701C180B0E0BC290D01FA0160935B00B1
:10FA5000D0925700E89511242E3F310529F02E5FF2
:10FA60003F4FF701A281E4CFA0E0B0E025E0FC0128
:10FA7000A0935B0020935700E89507B600FCFDCFEC
:10FA800081E180935700E89534C08437E9F4D9DEEA
:10FA9000D8DE80932401D5DE29DFE0912501F091A5
:10FAA00026018691C1DE8091250190912601019663
:10FAB00090932601809325018091240181508093A9
:10FAC00024018111EACF15C0853739F40FDF8EE1AB
:10FAD000ABDE87E9A9DE85E040CF813549F406DF5A
:10FAE0006EEE82E090E027D080E19EDE80E004C0F0
:10FAF000FDDE80E199DE81E0CF5FDE4FDEBFCDBF6E
:10FB0000DF91CF911F910F91FF90EF90DF90CF90F9
:10FB100008956BBFFA01DC0102C007900D922150DD
:10FB20003040D8F70895F999FECF92BD81BDF89A7B
:10FB3000992780B50895262FF999FECF1FBA92BD57
:10FB400081BD20BD0FB6F894FA9AF99A0FBE0196BE
:06FB50000895F894FFCFB8
:10FB560080C0A801FEFFFFFF00DEADBEEFFEEDC0D8
:0CFB6600A801800000000007D080555569
:040000031000F000F9
:00000001FF
