:020000023000CC
:10F000008EC000000DC100000BC1000009C100004E
:10F0100007C1000005C1000003C1000001C10000DC
:10F02000FFC00000FDC00000FBC00000F9C00000F0
:10F03000F7C00000F5C00000F3C00000F1C0000000
:10F04000EFC00000EDC00000EBC00000E9C0000010
:10F05000E7C00000E5C00000E3C00000E1C0000020
:10F06000DFC00000DDC00000DBC00000D9C0000030
:10F07000D7C00000D5C00000D3C00000D1C0000040
:10F08000CFC00000CDC00000CBC00000C9C0000050
:10F09000C7C00000C5C00000C3C00000C1C0000060
:10F0A000BFC00000BDC00000BBC00000B9C0000070
:10F0B000B7C00000B5C00000B3C00000B1C0000080
:10F0C000AFC00000ADC00000ABC00000A9C0000090
:10F0D000A7C00000A5C00000A3C00000A1C00000A0
:10F0E0009FC000001300050000496E76616C6964E2
:10F0F00020696D6167652066696C65000800050020
:10F10000004572726F7200090005000346756C6C51
:10F11000000A000500004F70636F64653F00112412
:10F120001FBECFEFD1E2DEBFCDBF01E00CBF12E0CA
:10F13000A0E0B2E0EEECFEEF03E00BBF02C00790F0
:10F140000D92A032B107D9F722E0A0E2B2E001C0EF
:10F150001D92AC32B207E1F701D0B7C614BE88E108
:10F160000FB6F89480936000109260000FBE2FEFEE
:10F1700083EC99E0215080409040E1F700C000000E
:10F18000112485E08093810080E090E088D6882378
:10F1900021F060E080E090E08AD681E090E07FD6C8
:10F1A000843021F064E081E090E081D65FD391D09B
:10F1B00099D064D210922A0210922B02C3E0C12C83
:10F1C000D12C760180912A02882329F080912B028C
:10F1D000882349F004C075D28111F8CF1CC0A1D397
:10F1E000811105C0EFCF68D38111F9CF14C082E03F
:10F1F00090E055D68E3E79F080912B02813011F748
:10F20000F601E0925B00C0935700E89537D280D3B7
:10F2100010922B02D7CFEE27FF27099480E090E0D1
:10F22000EFCE20E52CBD2C9820EF2EBD0DB407FEAF
:10F23000FDCF292F33272EBD0DB407FEFDCF8EBD88
:10F240000DB407FEFDCF6EBD0DB407FEFDCF2C9AA9
:10F250001CBC08950F931F93CF93DF938C01EB0198
:10F26000672F7727DEDF6C2FC8010196DF91CF91E2
:10F270001F910F91D6CF20E52CBD2C982FE02EBDED
:10F280000DB407FEFDCF292F33272EBD0DB407FE89
:10F29000FDCF8EBD0DB407FEFDCF1EBC0DB407FE25
:10F2A000FDCF2C9A8EB51CBC08951F93CF93DF938E
:10F2B000EC01E1DF182FCE010196DDDF212F30E0D8
:10F2C000322F2227A901482BCA01DF91CF911F912C
:10F2D00008958FE085B987E084B92C9A249A81E05B
:10F2E0008DBD08950F931F93CF93DF9383E090E03C
:10F2F000D6D5853529F000E012E0C0E0D0E013C09B
:10F3000084E090E0CCD58A3AB1F701E012E0C5E0A4
:10F31000D0E0CE01C4D5F80181938F012196C73189
:10F32000D105B9F7E8CFF80161918F01CE0179DFFE
:10F330002196CC31D105B9F7DF91CF911F910F9173
:10F340000895CF93DF93EC0160E181E097E069DFFE
:10F35000BE0184E097E07EDF62E080E097E061DF5D
:10F3600061E081E097E05DDF83E097E084DF823257
:10F3700021F060E181E097E054DF83E097E07BDFFC
:10F38000823231F7DF91CF9108952F923F924F92C1
:10F390005F926F927F928F929F92AF92BF92CF9225
:10F3A000DF92EF92FF920F931F93CF93DF93CDB72E
:10F3B000DEB7CD50D240DEBFCDBF88E297E075DF2B
:10F3C000009711F480E098E78E010F5F1F4F6E01E8
:10F3D00023EFC21A2DEFD20A58010C151D0589F032
:10F3E0007C01EFEFEE1AFE0A46DFF80181938F01F0
:10F3F000E114F0E8FF0619F4E12CE8E7FE2EC7015E
:10F40000ECCFBC0188E297E025DF60E481E097E083
:10F4100008DF81E097E02FDF8111FBCF75010CE061
:10F4200017E0F70161917F01C801FBDE0F5F1F4FFD
:10F430000231F7E01F07A9F70F8110E0102F002716
:10F440008885080F111D298530E0322F22278A85F3
:10F45000280F311D8B8590E0F82EEE244C85E40EAC
:10F46000F11C2330310591F429EFE21621E0F20678
:10F47000A8F52091200230912102E216F30670F1E6
:10F480002F5F3F4F2E153F0548F124C00530124035
:10F4900028F524303105D0F42130310531F1223006
:10F4A0003105E1F435D26FEF82E090E000D5809134
:10F4B00028029091290245DF109221021092200229
:10F4C000109223021092220222E044C0263031051D
:10F4D00060F004C0053082E0180768F080912802CF
:10F4E000909129022EDF21E035C0C35FDD4F1882E5
:10F4F000CD50D240A7C00CD204501109F092230283
:10F50000E0922202C70101976C01E12CF12C29E065
:10F51000CC0CDD1CEE1CFF1C2A95D1F7EE24FF2439
:10F52000880F892F881F990B9195A0E0B0E0DC012E
:10F5300099278827C82AD92AEA2AFB2AD701C6018F
:10F54000800F911FA11DB11D8130904FA340B105C7
:10F5500038F023E0C35FDD4F2883CD50D24072C026
:10F560000115F2E01F0710F424E001C022E0C35FA0
:10F57000DD4F2883CD50D240002319F00F5F1F4F7D
:10F58000FBCFC114D104E104F10419F4CE010D96AE
:10F5900059D1DE011D9620E030E099249394260194
:10F5A000370181E0581A61087108F3E08F2E85E079
:10F5B000382E91E1292E2017310708F038C0C701F5
:10F5C000B601620F731F811D911DF501E20FF31F3C
:10F5D000458550E0542F4427EC914E2B0A01FB0146
:10F5E00080935B0090925700E89511242E5F3F4F67
:10F5F00021111BC0B301A201420F531F611D711DD8
:10F60000FA0160935B0080925700E89507B600FC12
:10F61000FDCFFA0160935B0030925700E89507B682
:10F6200000FCFDCF20925700E8951296C4CFC35F2F
:10F63000DD4F2881CD50D240243021F46EEE82E09F
:10F6400090E035D4C35FDD4F8881CD50D240C35F99
:10F65000DD4FDEBFCDBFDF91CF911F910F91FF90A6
:10F66000EF90DF90CF90BF90AF909F908F907F9062
:10F670006F905F904F903F902F900895CF9385E4C7
:10F6800090E05FDE87E190E00AD48B3B91F489E162
:10F6900090E005D4C82F88E190E001D42C2F30E011
:10F6A000322F2227280F311D309329022093280260
:10F6B00006C089E797EB9093290280932802CF91A7
:10F6C0000895AF92BF92CF92DF92EF92FF920F9385
:10F6D0001F93CF93DF93CDB7DEB7C456D109DEBFFA
:10F6E000CDBF86E297E0E1DD892B11F481E09BC07C
:10F6F00081E080932B0282E097E0BDDD82FF0EC0A7
:10F7000064E082E097E08DDD2FEF37E883E1215060
:10F7100030408040E1F700C00000EDCF36DEF82E2B
:10F7200084E297E0C2DD8C01185A92E0F916C1F12B
:10F730009F1520F0E1E0FE16C9F006C0F3E0FF16C9
:10F7400011F124E0F216D9F14CEF50EF60E070E0D7
:10F750006D5F7F4F2AE030E0CE01019696D38AE0BC
:10F76000FE0131966F01E82EEE0E45C041E151EFEA
:10F7700060E070E06D5F7F4F2CE030E0CE010196DD
:10F7800084D38CE0EDCF47E051EF60E070E06D5F37
:10F790007F4F29E030E0CE01019677D389E0E0CFBA
:10F7A0008091220290912302209120023091210227
:10F7B0002817390720F490932102809320021982A0
:10F7C00084E08A8380912202909123029B838C8320
:10F7D00084E0C6CFF60161916F015801FFEFAF1AC7
:10F7E000BF0AC8011EDDA11420E6B20619F4A12C3F
:10F7F000A8E5BA2E8501EC10EDCFB801785584E26A
:10F8000097E028DD60E281E097E00BDD81E097E0A2
:10F8100032DD8111FBCF34E0F31268CF60E181E08B
:10F8200097E0FFDC80E0CC59DF4FDEBFCDBFDF913A
:10F83000CF911F910F91FF90EF90DF90CF90BF90ED
:10F84000AF90089520E030E0FC01E20FF31F40810B
:10F850004C3051F44181443939F42C5F3F4F24330B
:10F86000310591F781E0089580E0089582E080936A
:10F87000C00088E18093C10086E08093C20080E1EF
:10F880008093C40008959091C00095FFFCCF8093B1
:10F89000C60008958F708A3008F0895F805DF3CFCD
:10F8A0008091C00087FFFCCF8091C00084FD01C023
:10F8B000A8958091C60008958091C00087FF05C07B
:10F8C00027D081E080932A023FC081E00895809193
:10F8D00084009091850092FF04C025B1205825B97D
:10F8E00001C02F982091260230912702821793079A
:10F8F00050F420912402309125022F5F3F4F309326
:10F9000025022093240290932702809326020895D3
:10F910001092850010928400109225021092240209
:10F92000089580E090E0DC01ABBFFC0187919691E7
:10F93000019641F081E0209124023091250225308A
:10F94000310508F480E008952F923F924F925F9224
:10F950006F927F928F929F92AF92BF92CF92DF92DF
:10F96000EF92FF920F931F93CF93DF93CDB7DEB744
:10F97000C052D140DEBFCDBFC25EDE4F1882CE5135
:10F98000D140812C212C312C412C512C3201C12C05
:10F99000D12C760100E010E040E0C15EDE4F4883EC
:10F9A000CF51D1407DDFC15EDE4F4881CF51D14084
:10F9B000433001F120F4413071F038F014C045308B
:10F9C00021F1E0F0463091F17CC08B3131F78BE1D1
:10F9D000882E41E0E2CF8826C25EDE4F8883CE517A
:10F9E000D14042E0DACF082F10E0102F0027882600
:10F9F00043E0D3CF082B882644E0CFCF8E3061F68A
:10FA00008826212C312C45E0C8CF91012F5F3F4F34
:10FA1000E1E0F0E0EC0FFD1FE20DF31D808388268E
:10FA20002017310709F42EC21901B7CF8811B4CFBE
:10FA30004981433109F4E2C060F5463009F4CBC096
:10FA400000F5423009F441C0433009F46BC0413045
:10FA500009F096C11A8288E08B8381E48C8386E565
:10FA60008D8382E58E8389E48F8383E5888780E5B3
:10FA700089878FE58A8782E38B8720E00BE010E09F
:10FA800084C1413109F45BC008F09CC04031E9F009
:10FA900077C1483109F46EC048F4453109F4AEC06D
:10FAA00008F422C1463109F41FC16AC14A3109F480
:10FAB00054C008F475C04B3109F444C04D3139F0DD
:10FAC0005FC1473009F4B4CF68CF20E039C08D81E1
:10FAD000803339F49F819923B1F09130B1F498E9E2
:10FAE00017C0982F907599F0803521F499E0E0E0E7
:10FAF000F0E005C0883559F4E3E0F0E099E0909338
:10FB00005700949105C09EE103C091E001C090E0D0
:10FB10001A821B828C831D829E831F8220E007E055
:10FB200010E033C1EA81E059E33028F4F0E0E45E0C
:10FB3000FD4F808101C080E01A828B833FC021E0AD
:10FB40001A8221C18D81882321F0813021F488E936
:10FB500024C08EE122C081E020C01A82E1E0F0E002
:10FB600089E080935700E491EB831C8220E004E05D
:10FB700010E00BC18B81803551F48C81883019F4F1
:10FB8000E2E0F0E006C089E0E0E0F0E003C0E3E09E
:10FB9000F0E089E08093570084911A828B83E5CF4F
:10FBA0008D81836C99E0E1E0F0E0082E909357009E
:10FBB000E89507B600FCFDCF1A821B8220E003E027
:10FBC00010E0E3C080EC8A8320E002E010E0412CEA
:10FBD000512C3201DAC08A81CB80D12CE12CF12C5E
:10FBE0007601DD24CC24F82A8D81C82A8C81D82A7C
:10FBF000CC0CDD1CEE1CFF1C1A82C4C08A8190E074
:10FC0000982F88272B81822B433109F044C041145F
:10FC1000F0EC5F06F3E06F06710470F423E0F2018C
:10FC200060925B0020935700E89507B600FCFDCF7B
:10FC30004FEF541A640A740A4B85460157019E011E
:10FC4000255F3F4FD90112969D01FD0131976081DB
:10FC500050E0562B61E00A01F401A0925B00609332
:10FC60005700E8951124E2E08E0E911CA11CB11CF6
:10FC7000029711F04C91E6CF85E0F601E0925B002F
:10FC800080935700E89507B600FCFDCF81E1809393
:10FC90005700E89525C0FE013B969C01B701A601DF
:10FCA00041BD852E962EA72EBB2482BC4F5F5F4F91
:10FCB0006F4F7F4FA191A0BDFA9AF99AF999FECFA3
:10FCC0002150310969F701974C01A12CB12CFFEFAC
:10FCD0008F1A9F0AAF0ABF0A8C0C9D1CAE1CBF1C5A
:10FCE0001A82750164014EC02A8130E0322F22272A
:10FCF0008B81282B89010D5F1F4F1A824431A1F49B
:10FD0000DE011396EBBEF601879196918C931296C5
:10FD1000FD013197908342E0C40ED11CE11CF11C1F
:10FD20002250310979F729C0CE0103965C014901BF
:10FD3000D701C60181BD492F5A2F6B2F772742BDAE
:10FD40000196A11DB11DF89A40B5F50141935F01DF
:10FD5000F1E08F1A910871F7C9010197A0E0B0E0B6
:10FD60000196A11DB11DC80ED91EEA1EFB1EA3E0FF
:10FD7000B0E0AC0FBD1FA20FB31F1C9220E005C066
:10FD800080EC8A8320E002E010E08BE1C05EDE4F71
:10FD90002883C052D14077DDC25EDE4F8881CE51CC
:10FDA000D14071DDA12EBB248A2D6DDD802F6BDD4E
:10FDB0008EE069DD25E1822EC25EDE4F4881CE51A4
:10FDC000D140842680268A24CE0101965C01080F4A
:10FDD000191FC05EDE4F2881C052D140A016B10667
:10FDE000B1F0F50131915F01832FC05EDE4F2883B2
:10FDF000C052D140C15EDE4F3883CF51D14043DD88
:10FE0000C15EDE4F3881CF51D1408326E2CF882DAD
:10FE1000C05EDE4F2883C052D14035DDC25EDE4F6A
:10FE20004881CE51D1404F5FC25EDE4F4883CE51F4
:10FE3000D140C05EDE4F2881C052D140222309F458
:10FE4000A9CD000081E180935700E8956EEE82E035
:10FE500090E02DD080E0C05EDE4FDEBFCDBFDF91F1
:10FE6000CF911F910F91FF90EF90DF90CF90BF90B7
:10FE7000AF909F908F907F906F905F904F903F904A
:10FE80002F900895180146E088CD6BBFFA01DC0180
:10FE900002C007900D9221503040D8F70895F9998B
:10FEA000FECF92BD81BDF89A992780B50895262F7F
:10FEB000F999FECF1FBA92BD81BD20BD0FB6F8944F
:0EFEC000FA9AF99A0FBE01960895F894FFCFB2
:10FECE0080C0A801FEFFFFFF00DEADBEEFFEEDC05D
:10FEDE00A801800000000007D08055550F020A00CF
:040000033000F000D9
:00000001FF
