:1070000050C00000C9C00000C7C00000C5C00000DB
:10701000C3C00000C1C00000BFC00000BDC0000070
:10702000BBC00000B9C00000B7C00000B5C0000080
:10703000B3C00000B1C00000AFC00000ADC0000090
:10704000ABC00000A9C00000A7C00000A5C00000A0
:10705000A3C00000A1C000009FC000009DC00000B0
:107060009BC0000099C000001300050000496E7627
:10707000616C696420696D6167652066696C650093
:1070800008000500004572726F72000900050003D8
:1070900046756C6C000A000500004F70636F6465F4
:1070A0003F0011241FBECFEFD8E0DEBFCDBF11E0FF
:1070B000A0E0B1E0E6E5FAE702C005900D92AC3140
:1070C000B107D9F721E0ACE1B1E001C01D92AB32CC
:1070D000B207E1F701D0BDC414BE88E10FB6F89441
:1070E00080936000109260000FBE2FEF83EC99E058
:1070F000215080409040E1F700C00000112485E05D
:107100008093810080E090E08ED4882321F060E0BD
:1071100080E090E090D481E090E085D4843021F04C
:1071200064E081E090E087D412D38FD099D024D24C
:107130001092290110922A0113E0C0E0D0E0809162
:107140002901882329F080912A01882349F004C06D
:1071500036D28111F8CF1BC056D3811105C015C09E
:107160001CD38111F9CF13C082E090E05CD48E3E35
:1071700071F080912A01813041F4FE011093570093
:10718000E895FAD137D310922A0112D3D8CFEE273F
:10719000FF27099480E090E033CF20E52CBD2A98AA
:1071A00020EF2EBD0DB407FEFDCF292F33272EBDB6
:1071B0000DB407FEFDCF8EBD0DB407FEFDCF6EBD35
:1071C0000DB407FEFDCF2A9A1CBC08950F931F93A0
:1071D000CF93DF938C01EB01672F7727DEDF6C2FD6
:1071E000C8010196DF91CF911F910F91D6CF20E575
:1071F0002CBD2A982FE02EBD0DB407FEFDCF292F00
:1072000033272EBD0DB407FEFDCF8EBD0DB407FE96
:10721000FDCF1EBC0DB407FEFDCF2A9A8EB51CBC57
:1072200008951F93CF93DF93EC01E1DF182FCE0178
:107230000196DDDF212F30E0322F2227A901482BD4
:10724000CA01DF91CF911F9108958CE385B98CE23B
:1072500084B95C9A549A299A219A81E08DBD089547
:107260000F931F93CF93DF9383E090E0DCD38535BA
:1072700029F000E011E0C0E0D0E013C084E090E02D
:10728000D2D38A3AB1F701E011E0C5E0D0E0CE01F7
:10729000CAD3F80181938F012196C731D105B9F77F
:1072A000E8CFF80161918F01CE0177DF2196CC31D3
:1072B000D105B9F7DF91CF911F910F910895CF9329
:1072C000DF93EC0160E181E097E067DFBE0184E0DD
:1072D00097E07CDF62E080E097E05FDF61E081E0E3
:1072E00097E05BDF83E097E082DF823221F060E1AC
:1072F00081E097E052DF83E097E079DF823231F777
:10730000DF91CF910895AF92BF92CF92DF92EF922B
:10731000FF920F931F93CF93DF93CDB7DEB7CD507E
:10732000D240DEBFCDBF88E297E07BDF009711F44B
:1073300080E098E78E010F5F1F4F5E0123EFA21AD6
:107340002DEFB20A68010A151B0589F07C01EFEFE9
:10735000EE1AFE0A4CDFF80181938F01E114F0E888
:10736000FF0619F4E12C38E7F32EC701ECCFBC017E
:1073700088E297E02BDF60E481E097E00EDF81E0B8
:1073800097E035DF8111FBCF76010CE017E0F701C4
:1073900061917F01C80101DF0F5F1F4F0231F7E0EC
:1073A0001F07A9F7EF80F12CFE2CEE248885E80E4C
:1073B000F11C898590E0982F88272A85820F911DDE
:1073C0000B8510E0102F00272C85020F111D833034
:1073D000910579F409331105A8F580911C0190916C
:1073E0001D010817190770F101968017910750F1D8
:1073F00024C025E0E21622E0F20620F58430910553
:10740000C8F48130910529F10297E1F4F3D16FEFCF
:1074100082E090E010D380912701909128014FDF06
:1074200010921D0110921C0110921F0110921E015A
:1074300072E092C0069768F005C0F5E0EF16F2E042
:10744000FF0648F0809127019091280138DF71E014
:1074500083C070E081C0CED184E0E81AF1081093B7
:107460001F0100931E0101501109102F0027110F59
:10747000C8018E0D9F1D8130904708F06CC0E1144B
:10748000F2E0FF0610F474E001C072E0C7018F77EC
:107490009927892B21F02FEFE21AF20AF7CF011575
:1074A000110551F0DE011D9620E030E081E093E00F
:1074B00065E0F1E1BF2E3BC0CE010D96C35FDD4F0D
:1074C0007883CD50D2402FD1C35FDD4F7881CD502E
:1074D000D2408111E7CF75E03FC0F601E20FF31F04
:1074E000458550E0542F4427EC914E2BF8010A01BA
:1074F00080935700E89511242E5F3F4FA9014F77E5
:107500005527452B89F4EE57F10990935700E895DC
:1075100007B600FCFDCF60935700E89507B600FC66
:10752000FDCFB0925700E89512960E5F1F4F2E15B3
:107530003F0598F2743081F46EEE82E090E0C35F14
:10754000DD4F7883CD50D24076D2C35FDD4F788156
:10755000CD50D24001C073E0872FC35FDD4FDEBF47
:10756000CDBFDF91CF911F910F91FF90EF90DF90F2
:10757000CF90BF90AF900895CF9385E490E09FDEC9
:1075800087E190E050D28B3B91F489E190E04BD2BF
:10759000C82F88E190E047D22C2F30E0322F2227ED
:1075A000280F311D309328012093270106C089E759
:1075B00097EB9093280180932701CF910895AF9284
:1075C000BF92CF92DF92EF92FF920F931F93CF93D0
:1075D000DF93CDB7DEB7C456D109DEBFCDBF86E29B
:1075E00097E01FDE892B11F481E08EC081E080934B
:1075F0002A0182E097E0FBDD82FF0EC064E082E0BA
:1076000097E0CBDD2FEF37E883E121503040804019
:10761000E1F700C00000EDCF76DEB82E84E297E0FF
:1076200000DE8C01185A92E0B91661F19B1520F02A
:10763000E1E0BE16A9F006C0F3E0BF16D1F024E0E9
:10764000B21679F14AE050E060E870E7CE010196A9
:10765000E1D18AE0FE0131967F01A82EAE0E3CC03A
:107660004CE050E065E970E7CE010196D3D18CE0A3
:10767000F1CF49E050E06BE870E7CE010196CAD146
:1076800089E0E8CF20911E0130911F0140911C013B
:1076900050911D014217530720F430931D01209390
:1076A0001C01198284E08A8320911E0130911F0100
:1076B0003B832C83CFCFF70161917F016801FFEFFE
:1076C000CF1ADF0AC80169DDC11420E6D20619F419
:1076D000C12C58E5D52E8601AE10EDCFB8017855F6
:1076E00084E297E073DD60E281E097E056DD81E0BF
:1076F00097E07DDD8111FBCF34E0B31275CF60E1FF
:1077000081E097E04ADD80E0CC59DF4FDEBFCDBF9E
:10771000DF91CF911F910F91FF90EF90DF90CF906D
:10772000BF90AF90089520E030E0FC01E20FF31F1E
:1077300040814C3051F44181443939F42C5F3F4F42
:107740002433310591F781E0089580E0089582E0C7
:107750008093C00088E18093C10086E08093C200DE
:1077600080E18093C40008959091C00095FFFCCF04
:107770008093C60008958F708A3008F0895F805D1D
:10778000F3CF8091C00087FFFCCF8091C00084FDC3
:1077900001C0A8958091C60008958091C00087FF20
:1077A00005C028D081E08093290150C081E0089570
:1077B000809184009091850092FF05C025B132E050
:1077C000232725B901C02998209122013091230156
:1077D0008217930750F420912001309121012F5FEF
:1077E0003F4F3093210120932001909323018093F8
:1077F00022010895109285001092840010922101B8
:10780000109220010895E0E0F0E0859194910196B6
:1078100041F081E020912001309121012530310596
:1078200008F480E00895ADDF803239F088E180937C
:10783000600088E080936000FFCF84E195CFCF9314
:10784000C82F9FDFC150E9F7CF91EDCFEF92FF92A4
:107850000F931F93CF93DF93CDB7DEB7C150D140C5
:10786000DEBFCDBF8EDF8134A9F48BDFCF5FDE4F6B
:107870008883C150D140D7DFCF5FDE4F8881C150B0
:10788000D140823811F484E003C08138F9F083E0FC
:107890006BDFB2C0823411F484E103C0853419F483
:1078A00084E0CDDFA9C0853569F46BDF182F69DF6F
:1078B000212F30E0382B220F331F309326012093E5
:1078C000250199C0863521F484E0B9DF80E0E0CF5E
:1078D000843609F060C055DF54DF8093240151DF06
:1078E000E0912501F0912601E11580E7F80720F4E9
:1078F00083E080935700E8958E010F5F1F4F78015A
:1079000040DFF80181938F018091240181508093A1
:1079100024018111F5CFE0912501F0912601E115B7
:1079200080E7F80720F083E080935700E8957BDF3D
:1079300007B600FCFDCF2091250130912601890179
:1079400002581F4FC9016981A701421B530BFF2435
:10795000F394DA01A80FB91F1196EC91119770E01A
:107960007E2BFC010B01F0925700E8951124801743
:10797000910721F0029612966C91EBCF85E0F90108
:1079800080935700E89507B600FCFDCF81E1809316
:107990005700E89531C08437D1F4F3DEF2DE8093EE
:1079A0002401EFDE40DFE0912501F0912601CF01B7
:1079B000019690932601809325018491D5DE8091D4
:1079C00024018150809324018111EDCF15C08537AA
:1079D00039F429DF8EE1C8DE85E9C6DE8FE058CFB5
:1079E000813549F420DF6EEE82E090E024D080E122
:1079F000BBDE80E004C017DF80E1B6DE81E0CF5F50
:107A0000DE4FDEBFCDBFDF91CF911F910F91FF9071
:107A1000EF900895FB01DC0102C005900D924150EA
:107A20005040D8F70895F999FECF92BD81BDF89ADC
:107A3000992780B50895262FF999FECF1FBA92BDD8
:107A400081BD20BD0FB6F894FA9AF99A0FBE01963F
:067A50000895F894FFCF39
:107A560080C0A801FEFFFFFF00DEADBEEFFEEDC059
:0C7A6600A801800000000007D0805555EA
:040000030000700089
:00000001FF
