:020000021000EC
:10F0000062C00000E0C00000DEC00000DCC0000004
:10F01000DAC00000D8C00000D6C00000D4C0000094
:10F02000D2C00000D0C00000CEC00000CCC00000A4
:10F03000CAC00000C8C00000C6C00000C4C00000B4
:10F04000C2C00000C0C00000BEC00000BCC00000C4
:10F05000BAC00000B8C00000B6C00000B4C00000D4
:10F06000B2C00000B0C00000AEC00000ACC00000E4
:10F07000AAC00000A8C00000A6C00000A4C00000F4
:10F08000A2C00000A0C000009EC000001300050048
:10F0900000496E76616C696420696D616765206600
:10F0A000696C650008000500004572726F72000906
:10F0B0000005000346756C6C000A000500004F70E7
:10F0C000636F64653F0011241FBECFEFD0E4DEBF45
:10F0D000CDBF11E0A0E0B1E0E2E5FBEF01E00BBF46
:10F0E00002C007900D92AC31B107D9F721E0ACE135
:10F0F000B1E001C01D92AB32B207E1F701D027C5E4
:10F1000014BE88E10FB6F8948093600010926000FE
:10F110000FBE2FEF83EC99E0215080409040E1F743
:10F1200000C00000112485E08093810080E090E021
:10F13000F8D4882321F060E080E090E0FAD481E008
:10F1400090E0EFD4843021F064E081E090E0F1D4ED
:10F150005DD392D098D062D21092290110922A01E8
:10F16000C3E0C12CD12C760180912901882329F09C
:10F1700080912A01882349F004C073D28111F8CF0D
:10F180001DC09FD3811105C017C066D38111F9CF6F
:10F1900015C082E090E0C5D48E3E81F080912A01B6
:10F1A000813051F4F601E0925B00C0935700E8957E
:10F1B00035D27ED310922A015AD3D6CFEE27FF271D
:10F1C000099480E090E01CCF20E52CBD2C9820EF26
:10F1D0002EBD0DB407FEFDCF292F33272EBD0DB454
:10F1E00007FEFDCF8EBD0DB407FEFDCF6EBD0DB485
:10F1F00007FEFDCF2C9A1CBC08950F931F93CF934D
:10F20000DF938C01EB01672F7727DEDF6C2FC801BE
:10F210000196DF91CF911F910F91D6CF20E52CBDA4
:10F220002C982FE02EBD0DB407FEFDCF292F3327DC
:10F230002EBD0DB407FEFDCF8EBD0DB407FEFDCF74
:10F240001EBC0DB407FEFDCF2C9A8EB51CBC0895D4
:10F250001F93CF93DF93EC01E1DF182FCE010196CE
:10F26000DDDF212F30E0322F2227A901482BCA01F0
:10F27000DF91CF911F91089580EF85B980EB84B91C
:10F2800081E08DBD08950F931F93CF93DF9383E0AB
:10F2900090E047D4853529F000E011E0C0E0D0E0EF
:10F2A00013C084E090E03DD48A3AB1F701E011E068
:10F2B000C5E0D0E0CE0135D4F80181938F012196CD
:10F2C000C731D105B9F7E8CFF80161918F01CE01BF
:10F2D0007BDF2196CC31D105B9F7DF91CF911F911A
:10F2E0000F910895CF93DF93EC0160E181E097E007
:10F2F0006BDFBE0184E097E080DF62E080E097E0B2
:10F3000063DF61E081E097E05FDF83E097E086DF25
:10F31000823221F060E181E097E056DF83E097E000
:10F320007DDF823231F7DF91CF9108952F923F92A6
:10F330004F925F926F927F928F929F92AF92BF9205
:10F34000CF92DF92EF92FF920F931F93CF93DF93B1
:10F35000CDB7DEB7CD50D240DEBFCDBF88E297E05B
:10F3600077DF009711F480E098E78E010F5F1F4F61
:10F370006E0123EFC21A2DEFD20A58010C151D059C
:10F3800089F07C01EFEFEE1AFE0A48DFF801819365
:10F390008F01E114F0E8FF0619F4E12CE8E7FE2EF6
:10F3A000C701ECCFBC0188E297E027DF60E481E091
:10F3B00097E00ADF81E097E031DF8111FBCF750133
:10F3C0000CE017E0F70161917F01C801FDDE0F5FDE
:10F3D0001F4F0231F7E01F07A9F70F8110E0102F30
:10F3E00000278885080F111D298530E0322F22273C
:10F3F0008A85280F311D8B8590E0F82EEE244C85F0
:10F40000E40EF11C2330310589F429EFE216F104F2
:10F41000A8F520911C0130911D01E216F30670F150
:10F420002F5F3F4F2E153F0548F124C00530124095
:10F4300028F524303105D0F42130310531F1223066
:10F440003105E1F435D26FEF82E090E072D3809124
:10F4500027019091280146DF10921D0110921C0196
:10F4600010921F0110921E0122E044C02630310587
:10F4700060F004C0053082E0180768F08091270131
:10F48000909128012FDF21E035C0C35FDD4F188246
:10F49000CD50D240A7C00CD204501109F0921F01E8
:10F4A000E0921E01C70101976C01E12CF12C29E0CB
:10F4B000CC0CDD1CEE1CFF1C2A95D1F7EE24FF249A
:10F4C000880F892F881F990B9195A0E0B0E0DC018F
:10F4D00099278827C82AD92AEA2AFB2AD701C601F0
:10F4E000800F911FA11DB11D8130904FA140B1052A
:10F4F00038F023E0C35FDD4F2883CD50D24072C087
:10F500000115F2E01F0710F424E001C022E0C35F00
:10F51000DD4F2883CD50D240002319F00F5F1F4FDD
:10F52000FBCFC114D104E104F10419F4CE010D960E
:10F5300059D1DE011D9620E030E0992493942601F4
:10F54000370181E0581A61087108F3E08F2E85E0D9
:10F55000382E91E1292E2017310708F038C0C70155
:10F56000B601620F731F811D911DF501E20FF31F9C
:10F57000458550E0542F4427EC914E2B0A01FB01A6
:10F5800080935B0090925700E89511242E5F3F4FC7
:10F5900021111BC0B301A201420F531F611D711D38
:10F5A000FA0160935B0080925700E89507B600FC73
:10F5B000FDCFFA0160935B0030925700E89507B6E3
:10F5C00000FCFDCF20925700E8951296C4CFC35F90
:10F5D000DD4F2881CD50D240243021F46EEE82E000
:10F5E00090E0A7D2C35FDD4F8881CD50D240C35F8A
:10F5F000DD4FDEBFCDBFDF91CF911F910F91FF9007
:10F60000EF90DF90CF90BF90AF909F908F907F90C2
:10F610006F905F904F903F902F900895CF9385E427
:10F6200090E060DE87E190E07CD28B3B91F489E151
:10F6300090E077D2C82F88E190E073D22C2F30E091
:10F64000322F2227280F311D3093280120932701C4
:10F6500006C089E797EB9093280180932701CF910B
:10F660000895AF92BF92CF92DF92EF92FF920F93E5
:10F670001F93CF93DF93CDB7DEB7C456D109DEBF5A
:10F68000CDBF86E297E0E4DD892B11F481E09BC0D9
:10F6900081E080932A0182E097E0C0DD82FF0EC006
:10F6A00064E082E097E090DD2FEF37E883E12150BE
:10F6B00030408040E1F700C00000EDCF37DEF82E8B
:10F6C00084E297E0C5DD8C01185A92E0F916C1F189
:10F6D0009F1520F0E1E0FE16C9F006C0F3E0FF162A
:10F6E00011F124E0F216D9F144EA50EF60E070E045
:10F6F0006F5F7F4F2AE030E0CE01019608D28AE0AA
:10F70000FE0131966F01E82EEE0E45C049EB50EF39
:10F7100060E070E06F5F7F4F2CE030E0CE0101963B
:10F72000F6D18CE0EDCF4FEA50EF60E070E06F5F14
:10F730007F4F29E030E0CE010196E9D189E0E0CFAA
:10F7400080911E0190911F0120911C0130911D019B
:10F750002817390720F490931D0180931C0119820A
:10F7600084E08A8380911E0190911F019B838C838A
:10F7700084E0C6CFF60161916F015801FFEFAF1A27
:10F78000BF0AC80121DDA11420E6B20619F4A12C9C
:10F79000A8E5BA2E8501EC10EDCFB801785584E2CA
:10F7A00097E02BDD60E281E097E00EDD81E097E0FD
:10F7B00035DD8111FBCF34E0F31268CF60E181E0E9
:10F7C00097E002DD80E0CC59DF4FDEBFCDBFDF9197
:10F7D000CF911F910F91FF90EF90DF90CF90BF904E
:10F7E000AF90089520E030E0FC01E20FF31F40816C
:10F7F0004C3051F44181443939F42C5F3F4F24336C
:10F80000310591F781E0089580E0089582E08093CA
:10F81000C00088E18093C10086E08093C20080E14F
:10F820008093C40008959091C00095FFFCCF809311
:10F83000C60008958F708A3008F0895F805DF3CF2D
:10F840008091C00087FFFCCF8091C00084FD01C083
:10F85000A8958091C60008958091C00087FF05C0DB
:10F8600027D081E08093290152C081E008958091E2
:10F8700084009091850092FF04C025B1205825B9DD
:10F8800001C02F9820912201309123018217930704
:10F8900050F420912001309121012F5F3F4F309390
:10F8A0002101209320019093230180932201089548
:10F8B0001092850010928400109221011092200174
:10F8C000089580E090E0DC01ABBFFC018791969148
:10F8D000019641F081E020912001309121012530F5
:10F8E000310508F480E00895ABDF803239F088E11B
:10F8F0008093600088E080936000FFCF84E193CF25
:10F90000CF93C82F9DDFC150E9F7CF91EDCFCF92B4
:10F91000DF92EF92FF920F931F93CF93DF93CDB7B8
:10F92000DEB7C150D140DEBFCDBF8ADF8134A9F43C
:10F9300087DFCF5FDE4F8883C150D140D5DFCF5FF7
:10F94000DE4F8881C150D140823811F484E003C079
:10F95000813821F183E067DFCAC0823411F484E189
:10F9600003C0853419F484E0CBDFC1C0853591F440
:10F9700067DF182F65DF212F30E0382B832F881F9A
:10F980008827881F8BBF220F331F309326012093B7
:10F990002501ACC0863521F484E0B2DF80E0DBCF06
:10F9A000843609F070C04CDF4BDF8093240148DFC0
:10F9B0008091250190912601811520EE920748F44F
:10F9C000A0E0B0E023E0FC01A0935B00209357008F
:10F9D000E895CE0101967C018C0132DFF70181931D
:10F9E0007F01809124018150809324018111F5CF02
:10F9F00080912501909126018115F0EE9F0748F036
:10FA0000A0E0B0E023E0FC01A0935B00209357004E
:10FA1000E8956ADF07B600FCFDCF80912501909143
:10FA20002601A98120E030E0DD24D3947801E20EA4
:10FA3000F31EA901480F591F60E070E0F701C18073
:10FA4000B0E0BC290D01FA0160935B00D092570031
:10FA5000E89511242E3F310529F02E5F3F4FF70125
:10FA6000A281E4CFA0E0B0E025E0FC01A0935B0020
:10FA700020935700E89507B600FCFDCF81E1809305
:10FA80005700E89534C08437E9F4DADED9DE809394
:10FA90002401D6DE29DFE0912501F091260186912F
:10FAA000C2DE809125019091260101969093260156
:10FAB000809325018091240181508093240181113C
:10FAC000EACF15C0853739F40FDF8EE1ACDE87E968
:10FAD000AADE85E040CF813549F406DF6EEE82E094
:10FAE00090E027D080E19FDE80E004C0FDDE80E171
:10FAF0009ADE81E0CF5FDE4FDEBFCDBFDF91CF91D9
:10FB00001F910F91FF90EF90DF90CF9008956BBF02
:10FB1000FA01DC0102C007900D9221503040D8F765
:10FB20000895F999FECF92BD81BDF89A992780B5C5
:10FB30000895262FF999FECF1FBA92BD81BD20BD31
:10FB40000FB6F894FA9AF99A0FBE01960895F894B0
:02FB5000FFCFE5
:10FB520080C0A801FEFFFFFF00DEADBEEFFEEDC0DC
:0CFB6200A801800000000007D08055556D
:040000031000F000F9
:00000001FF
